{
  "contractName": "SupplyChain",
  "abi": [
    {
      "inputs": [],
      "payable": true,
      "stateMutability": "payable",
      "type": "constructor"
    },
    {
      "anonymous": false,
      "inputs": [
        {
          "indexed": true,
          "internalType": "address",
          "name": "addedConsumer",
          "type": "address"
        }
      ],
      "name": "ConsumerAdded",
      "type": "event"
    },
    {
      "anonymous": false,
      "inputs": [
        {
          "indexed": true,
          "internalType": "address",
          "name": "removedConsumer",
          "type": "address"
        }
      ],
      "name": "ConsumerRemoved",
      "type": "event"
    },
    {
      "anonymous": false,
      "inputs": [
        {
          "indexed": true,
          "internalType": "address",
          "name": "account",
          "type": "address"
        }
      ],
      "name": "DistributorAdded",
      "type": "event"
    },
    {
      "anonymous": false,
      "inputs": [
        {
          "indexed": true,
          "internalType": "address",
          "name": "account",
          "type": "address"
        }
      ],
      "name": "DistributorRemoved",
      "type": "event"
    },
    {
      "anonymous": false,
      "inputs": [
        {
          "indexed": true,
          "internalType": "address",
          "name": "account",
          "type": "address"
        }
      ],
      "name": "FarmerAdded",
      "type": "event"
    },
    {
      "anonymous": false,
      "inputs": [
        {
          "indexed": true,
          "internalType": "address",
          "name": "account",
          "type": "address"
        }
      ],
      "name": "FarmerRemoved",
      "type": "event"
    },
    {
      "anonymous": false,
      "inputs": [
        {
          "indexed": false,
          "internalType": "uint256",
          "name": "upc",
          "type": "uint256"
        }
      ],
      "name": "ForSale",
      "type": "event"
    },
    {
      "anonymous": false,
      "inputs": [
        {
          "indexed": false,
          "internalType": "uint256",
          "name": "upc",
          "type": "uint256"
        }
      ],
      "name": "Harvested",
      "type": "event"
    },
    {
      "anonymous": false,
      "inputs": [
        {
          "indexed": false,
          "internalType": "uint256",
          "name": "upc",
          "type": "uint256"
        }
      ],
      "name": "Packed",
      "type": "event"
    },
    {
      "anonymous": false,
      "inputs": [
        {
          "indexed": false,
          "internalType": "uint256",
          "name": "upc",
          "type": "uint256"
        }
      ],
      "name": "Processed",
      "type": "event"
    },
    {
      "anonymous": false,
      "inputs": [
        {
          "indexed": false,
          "internalType": "uint256",
          "name": "upc",
          "type": "uint256"
        }
      ],
      "name": "Purchased",
      "type": "event"
    },
    {
      "anonymous": false,
      "inputs": [
        {
          "indexed": false,
          "internalType": "uint256",
          "name": "upc",
          "type": "uint256"
        }
      ],
      "name": "Received",
      "type": "event"
    },
    {
      "anonymous": false,
      "inputs": [
        {
          "indexed": true,
          "internalType": "address",
          "name": "account",
          "type": "address"
        }
      ],
      "name": "RetailerAdded",
      "type": "event"
    },
    {
      "anonymous": false,
      "inputs": [
        {
          "indexed": true,
          "internalType": "address",
          "name": "account",
          "type": "address"
        }
      ],
      "name": "RetailerRemoved",
      "type": "event"
    },
    {
      "anonymous": false,
      "inputs": [
        {
          "indexed": false,
          "internalType": "uint256",
          "name": "upc",
          "type": "uint256"
        }
      ],
      "name": "Shipped",
      "type": "event"
    },
    {
      "anonymous": false,
      "inputs": [
        {
          "indexed": false,
          "internalType": "uint256",
          "name": "upc",
          "type": "uint256"
        }
      ],
      "name": "Sold",
      "type": "event"
    },
    {
      "constant": false,
      "inputs": [
        {
          "internalType": "address",
          "name": "account",
          "type": "address"
        }
      ],
      "name": "addConsumer",
      "outputs": [],
      "payable": false,
      "stateMutability": "nonpayable",
      "type": "function"
    },
    {
      "constant": false,
      "inputs": [
        {
          "internalType": "address",
          "name": "account",
          "type": "address"
        }
      ],
      "name": "addDistributor",
      "outputs": [],
      "payable": false,
      "stateMutability": "nonpayable",
      "type": "function"
    },
    {
      "constant": false,
      "inputs": [
        {
          "internalType": "address",
          "name": "account",
          "type": "address"
        }
      ],
      "name": "addFarmer",
      "outputs": [],
      "payable": false,
      "stateMutability": "nonpayable",
      "type": "function"
    },
    {
      "constant": false,
      "inputs": [
        {
          "internalType": "address",
          "name": "account",
          "type": "address"
        }
      ],
      "name": "addRetailer",
      "outputs": [],
      "payable": false,
      "stateMutability": "nonpayable",
      "type": "function"
    },
    {
      "constant": true,
      "inputs": [
        {
          "internalType": "address",
          "name": "account",
          "type": "address"
        }
      ],
      "name": "isConsumer",
      "outputs": [
        {
          "internalType": "bool",
          "name": "",
          "type": "bool"
        }
      ],
      "payable": false,
      "stateMutability": "view",
      "type": "function"
    },
    {
      "constant": true,
      "inputs": [
        {
          "internalType": "address",
          "name": "account",
          "type": "address"
        }
      ],
      "name": "isDistributor",
      "outputs": [
        {
          "internalType": "bool",
          "name": "",
          "type": "bool"
        }
      ],
      "payable": false,
      "stateMutability": "view",
      "type": "function"
    },
    {
      "constant": true,
      "inputs": [
        {
          "internalType": "address",
          "name": "account",
          "type": "address"
        }
      ],
      "name": "isFarmer",
      "outputs": [
        {
          "internalType": "bool",
          "name": "",
          "type": "bool"
        }
      ],
      "payable": false,
      "stateMutability": "view",
      "type": "function"
    },
    {
      "constant": true,
      "inputs": [
        {
          "internalType": "address",
          "name": "account",
          "type": "address"
        }
      ],
      "name": "isRetailer",
      "outputs": [
        {
          "internalType": "bool",
          "name": "",
          "type": "bool"
        }
      ],
      "payable": false,
      "stateMutability": "view",
      "type": "function"
    },
    {
      "constant": false,
      "inputs": [],
      "name": "renounceConsumer",
      "outputs": [],
      "payable": false,
      "stateMutability": "nonpayable",
      "type": "function"
    },
    {
      "constant": false,
      "inputs": [],
      "name": "renounceDistributor",
      "outputs": [],
      "payable": false,
      "stateMutability": "nonpayable",
      "type": "function"
    },
    {
      "constant": false,
      "inputs": [],
      "name": "renounceFarmer",
      "outputs": [],
      "payable": false,
      "stateMutability": "nonpayable",
      "type": "function"
    },
    {
      "constant": false,
      "inputs": [],
      "name": "renounceRetailer",
      "outputs": [],
      "payable": false,
      "stateMutability": "nonpayable",
      "type": "function"
    },
    {
      "constant": false,
      "inputs": [],
      "name": "kill",
      "outputs": [],
      "payable": false,
      "stateMutability": "nonpayable",
      "type": "function"
    },
    {
      "constant": false,
      "inputs": [
        {
          "internalType": "uint256",
          "name": "_upc",
          "type": "uint256"
        },
        {
          "internalType": "address payable",
          "name": "_originFarmerID",
          "type": "address"
        },
        {
          "internalType": "string",
          "name": "_originFarmName",
          "type": "string"
        },
        {
          "internalType": "string",
          "name": "_originFarmInformation",
          "type": "string"
        },
        {
          "internalType": "string",
          "name": "_originFarmLatitude",
          "type": "string"
        },
        {
          "internalType": "string",
          "name": "_originFarmLongitude",
          "type": "string"
        },
        {
          "internalType": "string",
          "name": "_productNotes",
          "type": "string"
        }
      ],
      "name": "harvestItem",
      "outputs": [],
      "payable": false,
      "stateMutability": "nonpayable",
      "type": "function"
    },
    {
      "constant": false,
      "inputs": [
        {
          "internalType": "uint256",
          "name": "_upc",
          "type": "uint256"
        }
      ],
      "name": "processItem",
      "outputs": [],
      "payable": false,
      "stateMutability": "nonpayable",
      "type": "function"
    },
    {
      "constant": false,
      "inputs": [
        {
          "internalType": "uint256",
          "name": "_upc",
          "type": "uint256"
        }
      ],
      "name": "packItem",
      "outputs": [],
      "payable": false,
      "stateMutability": "nonpayable",
      "type": "function"
    },
    {
      "constant": false,
      "inputs": [
        {
          "internalType": "uint256",
          "name": "_upc",
          "type": "uint256"
        },
        {
          "internalType": "uint256",
          "name": "_price",
          "type": "uint256"
        }
      ],
      "name": "sellItem",
      "outputs": [],
      "payable": false,
      "stateMutability": "nonpayable",
      "type": "function"
    },
    {
      "constant": false,
      "inputs": [
        {
          "internalType": "uint256",
          "name": "_upc",
          "type": "uint256"
        }
      ],
      "name": "buyItem",
      "outputs": [],
      "payable": true,
      "stateMutability": "payable",
      "type": "function"
    },
    {
      "constant": false,
      "inputs": [
        {
          "internalType": "uint256",
          "name": "_upc",
          "type": "uint256"
        }
      ],
      "name": "shipItem",
      "outputs": [],
      "payable": false,
      "stateMutability": "nonpayable",
      "type": "function"
    },
    {
      "constant": false,
      "inputs": [
        {
          "internalType": "uint256",
          "name": "_upc",
          "type": "uint256"
        }
      ],
      "name": "receiveItem",
      "outputs": [],
      "payable": false,
      "stateMutability": "nonpayable",
      "type": "function"
    },
    {
      "constant": false,
      "inputs": [
        {
          "internalType": "uint256",
          "name": "_upc",
          "type": "uint256"
        }
      ],
      "name": "purchaseItem",
      "outputs": [],
      "payable": false,
      "stateMutability": "nonpayable",
      "type": "function"
    },
    {
      "constant": true,
      "inputs": [
        {
          "internalType": "uint256",
          "name": "_upc",
          "type": "uint256"
        }
      ],
      "name": "fetchItemBufferOne",
      "outputs": [
        {
          "internalType": "uint256",
          "name": "itemSKU",
          "type": "uint256"
        },
        {
          "internalType": "uint256",
          "name": "itemUPC",
          "type": "uint256"
        },
        {
          "internalType": "address",
          "name": "ownerID",
          "type": "address"
        },
        {
          "internalType": "address",
          "name": "originFarmerID",
          "type": "address"
        },
        {
          "internalType": "string",
          "name": "originFarmName",
          "type": "string"
        },
        {
          "internalType": "string",
          "name": "originFarmInformation",
          "type": "string"
        },
        {
          "internalType": "string",
          "name": "originFarmLatitude",
          "type": "string"
        },
        {
          "internalType": "string",
          "name": "originFarmLongitude",
          "type": "string"
        }
      ],
      "payable": false,
      "stateMutability": "view",
      "type": "function"
    },
    {
      "constant": true,
      "inputs": [
        {
          "internalType": "uint256",
          "name": "_upc",
          "type": "uint256"
        }
      ],
      "name": "fetchItemBufferTwo",
      "outputs": [
        {
          "internalType": "uint256",
          "name": "itemSKU",
          "type": "uint256"
        },
        {
          "internalType": "uint256",
          "name": "itemUPC",
          "type": "uint256"
        },
        {
          "internalType": "uint256",
          "name": "productID",
          "type": "uint256"
        },
        {
          "internalType": "string",
          "name": "productNotes",
          "type": "string"
        },
        {
          "internalType": "uint256",
          "name": "productPrice",
          "type": "uint256"
        },
        {
          "internalType": "uint256",
          "name": "itemState",
          "type": "uint256"
        },
        {
          "internalType": "address",
          "name": "distributorID",
          "type": "address"
        },
        {
          "internalType": "address",
          "name": "retailerID",
          "type": "address"
        },
        {
          "internalType": "address",
          "name": "consumerID",
          "type": "address"
        }
      ],
      "payable": false,
      "stateMutability": "view",
      "type": "function"
    }
  ],
  "bytecode": "0x608060405262000015336200009f60201b60201c565b62000026336200010060201b60201c565b62000037336200016160201b60201c565b6200004833620001c260201b60201c565b33600460006101000a81548173ffffffffffffffffffffffffffffffffffffffff021916908373ffffffffffffffffffffffffffffffffffffffff160217905550600160068190555060016005819055506200036c565b620000ba8160006200022360201b620030721790919060201c565b8073ffffffffffffffffffffffffffffffffffffffff167f28b26e7a3d20aedbc5f8f2ebf7da671c0491723a2b78f47a097b0e46dee0714260405160405180910390a250565b6200011b8160016200022360201b620030721790919060201c565b8073ffffffffffffffffffffffffffffffffffffffff167fddbf200aa634dc3fb81cfd68583dd1040d1c751d335e1d86b631bde3e977fea860405160405180910390a250565b6200017c8160026200022360201b620030721790919060201c565b8073ffffffffffffffffffffffffffffffffffffffff167f2e0ded4123377a3c2bc9a26f1717655a129e2f20752924d42e730ec89c83dbd060405160405180910390a250565b620001dd8160036200022360201b620030721790919060201c565b8073ffffffffffffffffffffffffffffffffffffffff167f71ae26cad02663e3d92efd6ec56031a80d74a20c0ab4183faa8bf262261c9baa60405160405180910390a250565b600073ffffffffffffffffffffffffffffffffffffffff168173ffffffffffffffffffffffffffffffffffffffff1614156200025e57600080fd5b620002708282620002d960201b60201c565b156200027b57600080fd5b60018260000160008373ffffffffffffffffffffffffffffffffffffffff1673ffffffffffffffffffffffffffffffffffffffff16815260200190815260200160002060006101000a81548160ff0219169083151502179055505050565b60008073ffffffffffffffffffffffffffffffffffffffff168273ffffffffffffffffffffffffffffffffffffffff1614156200031557600080fd5b8260000160008373ffffffffffffffffffffffffffffffffffffffff1673ffffffffffffffffffffffffffffffffffffffff16815260200190815260200160002060009054906101000a900460ff16905092915050565b613392806200037c6000396000f3fe6080604052600436106101405760003560e01c806380fc0ce4116100b6578063bdd8a6a81161006f578063bdd8a6a814610920578063d38ea5bf14610c6e578063db0e6a2f14610ca9578063e7fb74c714610cc0578063f30fc48014610cee578063f61c899a14610d2957610140565b806380fc0ce414610742578063834ff739146107595780638ec4f505146107c25780638f0c86fa14610813578063a26be9991461087c578063b9429069146108b757610140565b806361e6982d1161010857806361e6982d14610296578063644241db146102ad57806366225ff9146102c45780637250e2241461043457806377c459131461048557806380c3f96d146106f157610140565b8063112940f9146101455780632d9235611461019657806341c0e1b5146101db57806349dae766146101f25780635da09b881461022d575b600080fd5b34801561015157600080fd5b506101946004803603602081101561016857600080fd5b81019080803573ffffffffffffffffffffffffffffffffffffffff169060200190929190505050610d64565b005b3480156101a257600080fd5b506101d9600480360360408110156101b957600080fd5b810190808035906020019092919080359060200190929190505050610deb565b005b3480156101e757600080fd5b506101f0611003565b005b3480156101fe57600080fd5b5061022b6004803603602081101561021557600080fd5b8101908080359060200190929190505050611096565b005b34801561023957600080fd5b5061027c6004803603602081101561025057600080fd5b81019080803573ffffffffffffffffffffffffffffffffffffffff169060200190929190505050611292565b604051808215151515815260200191505060405180910390f35b3480156102a257600080fd5b506102ab6112af565b005b3480156102b957600080fd5b506102c26112ba565b005b3480156102d057600080fd5b506102fd600480360360208110156102e757600080fd5b81019080803590602001909291905050506112c5565b604051808a8152602001898152602001888152602001806020018781526020018681526020018573ffffffffffffffffffffffffffffffffffffffff1673ffffffffffffffffffffffffffffffffffffffff1681526020018473ffffffffffffffffffffffffffffffffffffffff1673ffffffffffffffffffffffffffffffffffffffff1681526020018373ffffffffffffffffffffffffffffffffffffffff1673ffffffffffffffffffffffffffffffffffffffff168152602001828103825288818151815260200191508051906020019080838360005b838110156103f15780820151818401526020810190506103d6565b50505050905090810190601f16801561041e5780820380516001836020036101000a031916815260200191505b509a505050505050505050505060405180910390f35b34801561044057600080fd5b506104836004803603602081101561045757600080fd5b81019080803573ffffffffffffffffffffffffffffffffffffffff1690602001909291905050506118a4565b005b34801561049157600080fd5b506104be600480360360208110156104a857600080fd5b81019080803590602001909291905050506118c2565b604051808981526020018881526020018773ffffffffffffffffffffffffffffffffffffffff1673ffffffffffffffffffffffffffffffffffffffff1681526020018673ffffffffffffffffffffffffffffffffffffffff1673ffffffffffffffffffffffffffffffffffffffff16815260200180602001806020018060200180602001858103855289818151815260200191508051906020019080838360005b8381101561057a57808201518184015260208101905061055f565b50505050905090810190601f1680156105a75780820380516001836020036101000a031916815260200191505b50858103845288818151815260200191508051906020019080838360005b838110156105e05780820151818401526020810190506105c5565b50505050905090810190601f16801561060d5780820380516001836020036101000a031916815260200191505b50858103835287818151815260200191508051906020019080838360005b8381101561064657808201518184015260208101905061062b565b50505050905090810190601f1680156106735780820380516001836020036101000a031916815260200191505b50858103825286818151815260200191508051906020019080838360005b838110156106ac578082015181840152602081019050610691565b50505050905090810190601f1680156106d95780820380516001836020036101000a031916815260200191505b509c5050505050505050505050505060405180910390f35b3480156106fd57600080fd5b506107406004803603602081101561071457600080fd5b81019080803573ffffffffffffffffffffffffffffffffffffffff169060200190929190505050611e80565b005b34801561074e57600080fd5b50610757611e9e565b005b34801561076557600080fd5b506107a86004803603602081101561077c57600080fd5b81019080803573ffffffffffffffffffffffffffffffffffffffff169060200190929190505050611ea9565b604051808215151515815260200191505060405180910390f35b3480156107ce57600080fd5b50610811600480360360208110156107e557600080fd5b81019080803573ffffffffffffffffffffffffffffffffffffffff169060200190929190505050611ec6565b005b34801561081f57600080fd5b506108626004803603602081101561083657600080fd5b81019080803573ffffffffffffffffffffffffffffffffffffffff169060200190929190505050611f4d565b604051808215151515815260200191505060405180910390f35b34801561088857600080fd5b506108b56004803603602081101561089f57600080fd5b8101908080359060200190929190505050611f6a565b005b3480156108c357600080fd5b50610906600480360360208110156108da57600080fd5b81019080803573ffffffffffffffffffffffffffffffffffffffff169060200190929190505050612137565b604051808215151515815260200191505060405180910390f35b34801561092c57600080fd5b50610c6c600480360360e081101561094357600080fd5b8101908080359060200190929190803573ffffffffffffffffffffffffffffffffffffffff1690602001909291908035906020019064010000000081111561098a57600080fd5b82018360208201111561099c57600080fd5b803590602001918460018302840111640100000000831117156109be57600080fd5b91908080601f016020809104026020016040519081016040528093929190818152602001838380828437600081840152601f19601f82011690508083019250505050505050919291929080359060200190640100000000811115610a2157600080fd5b820183602082011115610a3357600080fd5b80359060200191846001830284011164010000000083111715610a5557600080fd5b91908080601f016020809104026020016040519081016040528093929190818152602001838380828437600081840152601f19601f82011690508083019250505050505050919291929080359060200190640100000000811115610ab857600080fd5b820183602082011115610aca57600080fd5b80359060200191846001830284011164010000000083111715610aec57600080fd5b91908080601f016020809104026020016040519081016040528093929190818152602001838380828437600081840152601f19601f82011690508083019250505050505050919291929080359060200190640100000000811115610b4f57600080fd5b820183602082011115610b6157600080fd5b80359060200191846001830284011164010000000083111715610b8357600080fd5b91908080601f016020809104026020016040519081016040528093929190818152602001838380828437600081840152601f19601f82011690508083019250505050505050919291929080359060200190640100000000811115610be657600080fd5b820183602082011115610bf857600080fd5b80359060200191846001830284011164010000000083111715610c1a57600080fd5b91908080601f016020809104026020016040519081016040528093929190818152602001838380828437600081840152601f19601f820116905080830192505050505050509192919290505050612154565b005b348015610c7a57600080fd5b50610ca760048036036020811015610c9157600080fd5b81019080803590602001909291905050506123b0565b005b348015610cb557600080fd5b50610cbe61257c565b005b610cec60048036036020811015610cd657600080fd5b8101908080359060200190929190505050612587565b005b348015610cfa57600080fd5b50610d2760048036036020811015610d1157600080fd5b8101908080359060200190929190505050612918565b005b348015610d3557600080fd5b50610d6260048036036020811015610d4c57600080fd5b8101908080359060200190929190505050612b14565b005b610d6d33611ea9565b610ddf576040517f08c379a000000000000000000000000000000000000000000000000000000000815260040180806020018281038252600c8152602001807f494e56414c494420524f4c45000000000000000000000000000000000000000081525060200191505060405180910390fd5b610de881612d10565b50565b8160026007811115610df957fe5b60076000838152602001908152602001600020600b0160009054906101000a900460ff166007811115610e2857fe5b14610e9b576040517f08c379a000000000000000000000000000000000000000000000000000000000815260040180806020018281038252600f8152602001807f4974656d206e6f74207061636b6564000000000000000000000000000000000081525060200191505060405180910390fd5b6007600084815260200190815260200160002060030160009054906101000a900473ffffffffffffffffffffffffffffffffffffffff168073ffffffffffffffffffffffffffffffffffffffff163373ffffffffffffffffffffffffffffffffffffffff1614610f73576040517f08c379a000000000000000000000000000000000000000000000000000000000815260040180806020018281038252601c8152602001807f43616c6c657220636f756c64206e6f742062652076657269666965640000000081525060200191505060405180910390fd5b600360076000868152602001908152602001600020600b0160006101000a81548160ff02191690836007811115610fa657fe5b02179055508260076000868152602001908152602001600020600a01819055507fa96ae0fc3224ebd79eebfe54bd130cc9cb94416cddd1f2386115e00b72532468846040518082815260200191505060405180910390a150505050565b600460009054906101000a900473ffffffffffffffffffffffffffffffffffffffff1673ffffffffffffffffffffffffffffffffffffffff163373ffffffffffffffffffffffffffffffffffffffff16141561109457600460009054906101000a900473ffffffffffffffffffffffffffffffffffffffff1673ffffffffffffffffffffffffffffffffffffffff16ff5b565b80600060078111156110a457fe5b60076000838152602001908152602001600020600b0160009054906101000a900460ff1660078111156110d357fe5b14611146576040517f08c379a000000000000000000000000000000000000000000000000000000000815260040180806020018281038252600d8152602001807f4e6f74206861727665737465640000000000000000000000000000000000000081525060200191505060405180910390fd5b6007600083815260200190815260200160002060030160009054906101000a900473ffffffffffffffffffffffffffffffffffffffff168073ffffffffffffffffffffffffffffffffffffffff163373ffffffffffffffffffffffffffffffffffffffff161461121e576040517f08c379a000000000000000000000000000000000000000000000000000000000815260040180806020018281038252601c8152602001807f43616c6c657220636f756c64206e6f742062652076657269666965640000000081525060200191505060405180910390fd5b600160076000858152602001908152602001600020600b0160006101000a81548160ff0219169083600781111561125157fe5b02179055507f5afe3b1bf87069693c075da5c22a98d63d1aef98a30dbbe538d0781a98b77ee5836040518082815260200191505060405180910390a1505050565b60006112a8826003612d6a90919063ffffffff16565b9050919050565b6112b833612dfc565b565b6112c333612e56565b565b6000806000606060008060008060006112dc6131c9565b600760008c8152602001908152602001600020604051806101e001604052908160008201548152602001600182015481526020016002820160009054906101000a900473ffffffffffffffffffffffffffffffffffffffff1673ffffffffffffffffffffffffffffffffffffffff1673ffffffffffffffffffffffffffffffffffffffff1681526020016003820160009054906101000a900473ffffffffffffffffffffffffffffffffffffffff1673ffffffffffffffffffffffffffffffffffffffff1673ffffffffffffffffffffffffffffffffffffffff168152602001600482018054600181600116156101000203166002900480601f0160208091040260200160405190810160405280929190818152602001828054600181600116156101000203166002900480156114545780601f1061142957610100808354040283529160200191611454565b820191906000526020600020905b81548152906001019060200180831161143757829003601f168201915b50505050508152602001600582018054600181600116156101000203166002900480601f0160208091040260200160405190810160405280929190818152602001828054600181600116156101000203166002900480156114f65780601f106114cb576101008083540402835291602001916114f6565b820191906000526020600020905b8154815290600101906020018083116114d957829003601f168201915b50505050508152602001600682018054600181600116156101000203166002900480601f0160208091040260200160405190810160405280929190818152602001828054600181600116156101000203166002900480156115985780601f1061156d57610100808354040283529160200191611598565b820191906000526020600020905b81548152906001019060200180831161157b57829003601f168201915b50505050508152602001600782018054600181600116156101000203166002900480601f01602080910402602001604051908101604052809291908181526020018280546001816001161561010002031660029004801561163a5780601f1061160f5761010080835404028352916020019161163a565b820191906000526020600020905b81548152906001019060200180831161161d57829003601f168201915b5050505050815260200160088201548152602001600982018054600181600116156101000203166002900480601f0160208091040260200160405190810160405280929190818152602001828054600181600116156101000203166002900480156116e65780601f106116bb576101008083540402835291602001916116e6565b820191906000526020600020905b8154815290600101906020018083116116c957829003601f168201915b50505050508152602001600a8201548152602001600b820160009054906101000a900460ff16600781111561171757fe5b600781111561172257fe5b8152602001600b820160019054906101000a900473ffffffffffffffffffffffffffffffffffffffff1673ffffffffffffffffffffffffffffffffffffffff1673ffffffffffffffffffffffffffffffffffffffff168152602001600c820160009054906101000a900473ffffffffffffffffffffffffffffffffffffffff1673ffffffffffffffffffffffffffffffffffffffff1673ffffffffffffffffffffffffffffffffffffffff168152602001600d820160009054906101000a900473ffffffffffffffffffffffffffffffffffffffff1673ffffffffffffffffffffffffffffffffffffffff1673ffffffffffffffffffffffffffffffffffffffff1681525050905080600001519950898160200151995089826101000151995089836101200151995089846101400151995089856101600151600781111561186657fe5b995089866101800151995089876101a00151995089886101c00151995089995099509950995099509950995099509950509193959799909294969850565b6118ad33611f4d565b6118b657600080fd5b6118bf81612eb0565b50565b6000806000806060806060806118d66131c9565b600760008b8152602001908152602001600020604051806101e001604052908160008201548152602001600182015481526020016002820160009054906101000a900473ffffffffffffffffffffffffffffffffffffffff1673ffffffffffffffffffffffffffffffffffffffff1673ffffffffffffffffffffffffffffffffffffffff1681526020016003820160009054906101000a900473ffffffffffffffffffffffffffffffffffffffff1673ffffffffffffffffffffffffffffffffffffffff1673ffffffffffffffffffffffffffffffffffffffff168152602001600482018054600181600116156101000203166002900480601f016020809104026020016040519081016040528092919081815260200182805460018160011615610100020316600290048015611a4e5780601f10611a2357610100808354040283529160200191611a4e565b820191906000526020600020905b815481529060010190602001808311611a3157829003601f168201915b50505050508152602001600582018054600181600116156101000203166002900480601f016020809104026020016040519081016040528092919081815260200182805460018160011615610100020316600290048015611af05780601f10611ac557610100808354040283529160200191611af0565b820191906000526020600020905b815481529060010190602001808311611ad357829003601f168201915b50505050508152602001600682018054600181600116156101000203166002900480601f016020809104026020016040519081016040528092919081815260200182805460018160011615610100020316600290048015611b925780601f10611b6757610100808354040283529160200191611b92565b820191906000526020600020905b815481529060010190602001808311611b7557829003601f168201915b50505050508152602001600782018054600181600116156101000203166002900480601f016020809104026020016040519081016040528092919081815260200182805460018160011615610100020316600290048015611c345780601f10611c0957610100808354040283529160200191611c34565b820191906000526020600020905b815481529060010190602001808311611c1757829003601f168201915b5050505050815260200160088201548152602001600982018054600181600116156101000203166002900480601f016020809104026020016040519081016040528092919081815260200182805460018160011615610100020316600290048015611ce05780601f10611cb557610100808354040283529160200191611ce0565b820191906000526020600020905b815481529060010190602001808311611cc357829003601f168201915b50505050508152602001600a8201548152602001600b820160009054906101000a900460ff166007811115611d1157fe5b6007811115611d1c57fe5b8152602001600b820160019054906101000a900473ffffffffffffffffffffffffffffffffffffffff1673ffffffffffffffffffffffffffffffffffffffff1673ffffffffffffffffffffffffffffffffffffffff168152602001600c820160009054906101000a900473ffffffffffffffffffffffffffffffffffffffff1673ffffffffffffffffffffffffffffffffffffffff1673ffffffffffffffffffffffffffffffffffffffff168152602001600d820160009054906101000a900473ffffffffffffffffffffffffffffffffffffffff1673ffffffffffffffffffffffffffffffffffffffff1673ffffffffffffffffffffffffffffffffffffffff16815250509050806000015198508881602001519850888260400151985088836060015198508884608001519850888560a001519850888660c001519850888760e001519850889850985098509850985098509850985050919395975091939597565b611e8933612137565b611e9257600080fd5b611e9b81612f0a565b50565b611ea733612f64565b565b6000611ebf826000612d6a90919063ffffffff16565b9050919050565b611ecf33611292565b611f41576040517f08c379a000000000000000000000000000000000000000000000000000000000815260040180806020018281038252600c8152602001807f494e56414c494420524f4c45000000000000000000000000000000000000000081525060200191505060405180910390fd5b611f4a81612fbe565b50565b6000611f63826001612d6a90919063ffffffff16565b9050919050565b8060056007811115611f7857fe5b60076000838152602001908152602001600020600b0160009054906101000a900460ff166007811115611fa757fe5b1461201a576040517f08c379a00000000000000000000000000000000000000000000000000000000081526004018080602001828103825260108152602001807f4974656d206e6f7420736869707065640000000000000000000000000000000081525060200191505060405180910390fd5b336007600084815260200190815260200160002060020160006101000a81548173ffffffffffffffffffffffffffffffffffffffff021916908373ffffffffffffffffffffffffffffffffffffffff1602179055503360076000848152602001908152602001600020600c0160006101000a81548173ffffffffffffffffffffffffffffffffffffffff021916908373ffffffffffffffffffffffffffffffffffffffff160217905550600660076000848152602001908152602001600020600b0160006101000a81548160ff021916908360078111156120f757fe5b02179055507fa8142743f8f70a4c26f3691cf4ed59718381fb2f18070ec52be1f1022d855557826040518082815260200191505060405180910390a15050565b600061214d826002612d6a90919063ffffffff16565b9050919050565b600654600760008981526020019081526020016000206000018190555086600760008981526020019081526020016000206001018190555086600654016007600089815260200190815260200160002060080181905550336007600089815260200190815260200160002060020160006101000a81548173ffffffffffffffffffffffffffffffffffffffff021916908373ffffffffffffffffffffffffffffffffffffffff160217905550856007600089815260200190815260200160002060030160006101000a81548173ffffffffffffffffffffffffffffffffffffffff021916908373ffffffffffffffffffffffffffffffffffffffff1602179055508460076000898152602001908152602001600020600401908051906020019061227f9291906132b8565b50836007600089815260200190815260200160002060050190805190602001906122aa9291906132b8565b50826007600089815260200190815260200160002060060190805190602001906122d59291906132b8565b50816007600089815260200190815260200160002060070190805190602001906123009291906132b8565b508060076000898152602001908152602001600020600901908051906020019061232b9291906132b8565b50600060076000898152602001908152602001600020600b0160006101000a81548160ff0219169083600781111561235f57fe5b02179055506001600654016006819055507f8e55ccfc9778ff8eba1646d765cf1982537ce0f9257054a17b48aad745250183876040518082815260200191505060405180910390a150505050505050565b80600660078111156123be57fe5b60076000838152602001908152602001600020600b0160009054906101000a900460ff1660078111156123ed57fe5b14612460576040517f08c379a00000000000000000000000000000000000000000000000000000000081526004018080602001828103825260118152602001807f4974656d206e6f7420726563656976656400000000000000000000000000000081525060200191505060405180910390fd5b336007600084815260200190815260200160002060020160006101000a81548173ffffffffffffffffffffffffffffffffffffffff021916908373ffffffffffffffffffffffffffffffffffffffff1602179055503360076000848152602001908152602001600020600d0160006101000a81548173ffffffffffffffffffffffffffffffffffffffff021916908373ffffffffffffffffffffffffffffffffffffffff1602179055506007806000848152602001908152602001600020600b0160006101000a81548160ff0219169083600781111561253c57fe5b02179055507f653d56639fee6b566a5c804764e9689de38645f0b733df89a36a1b7b42173dd8826040518082815260200191505060405180910390a15050565b61258533613018565b565b806003600781111561259557fe5b60076000838152602001908152602001600020600b0160009054906101000a900460ff1660078111156125c457fe5b14612637576040517f08c379a000000000000000000000000000000000000000000000000000000000815260040180806020018281038252601e8152602001807f436f756c64206e6f7420707574206974656d20757020666f722073616c65000081525060200191505060405180910390fd5b60076000838152602001908152602001600020600a0154803410156126c4576040517f08c379a000000000000000000000000000000000000000000000000000000000815260040180806020018281038252600f8152602001807f4e6f74207061696420656e70756768000000000000000000000000000000000081525060200191505060405180910390fd5b82336007600086815260200190815260200160002060020160006101000a81548173ffffffffffffffffffffffffffffffffffffffff021916908373ffffffffffffffffffffffffffffffffffffffff1602179055503360076000868152602001908152602001600020600b0160016101000a81548173ffffffffffffffffffffffffffffffffffffffff021916908373ffffffffffffffffffffffffffffffffffffffff160217905550600460076000868152602001908152602001600020600b0160006101000a81548160ff021916908360078111156127a257fe5b02179055506007600085815260200190815260200160002060030160009054906101000a900473ffffffffffffffffffffffffffffffffffffffff1673ffffffffffffffffffffffffffffffffffffffff166108fc60076000878152602001908152602001600020600a01549081150290604051600060405180830381858888f19350505050158015612839573d6000803e3d6000fd5b507f92f64ca637d023f354075a4be751b169c1a8a9ccb6d33cdd0cb3520543995727846040518082815260200191505060405180910390a1600060076000838152602001908152602001600020600a015490506000813403905060076000848152602001908152602001600020600d0160009054906101000a900473ffffffffffffffffffffffffffffffffffffffff1673ffffffffffffffffffffffffffffffffffffffff166108fc829081150290604051600060405180830381858888f1935050505015801561290f573d6000803e3d6000fd5b50505050505050565b806001600781111561292657fe5b60076000838152602001908152602001600020600b0160009054906101000a900460ff16600781111561295557fe5b146129c8576040517f08c379a00000000000000000000000000000000000000000000000000000000081526004018080602001828103825260168152602001807f5374617465206973206e6f742070726f6365737365640000000000000000000081525060200191505060405180910390fd5b6007600083815260200190815260200160002060030160009054906101000a900473ffffffffffffffffffffffffffffffffffffffff168073ffffffffffffffffffffffffffffffffffffffff163373ffffffffffffffffffffffffffffffffffffffff1614612aa0576040517f08c379a000000000000000000000000000000000000000000000000000000000815260040180806020018281038252601c8152602001807f43616c6c657220636f756c64206e6f742062652076657269666965640000000081525060200191505060405180910390fd5b600260076000858152602001908152602001600020600b0160006101000a81548160ff02191690836007811115612ad357fe5b02179055507f9b3b66e2380b690bae22c73ef1428fb0c91e72fe14a4b6defa13035214187aff836040518082815260200191505060405180910390a1505050565b8060046007811115612b2257fe5b60076000838152602001908152602001600020600b0160009054906101000a900460ff166007811115612b5157fe5b14612bc4576040517f08c379a00000000000000000000000000000000000000000000000000000000081526004018080602001828103825260138152602001807f436f756c64206e6f742073656c6c206974656d0000000000000000000000000081525060200191505060405180910390fd5b6007600083815260200190815260200160002060020160009054906101000a900473ffffffffffffffffffffffffffffffffffffffff168073ffffffffffffffffffffffffffffffffffffffff163373ffffffffffffffffffffffffffffffffffffffff1614612c9c576040517f08c379a000000000000000000000000000000000000000000000000000000000815260040180806020018281038252601c8152602001807f43616c6c657220636f756c64206e6f742062652076657269666965640000000081525060200191505060405180910390fd5b600560076000858152602001908152602001600020600b0160006101000a81548160ff02191690836007811115612ccf57fe5b02179055507ff00b9a5725b80c54016f42114f6ed7792d22eecb116011c4afac29c57bef6c95836040518082815260200191505060405180910390a1505050565b612d2481600061307290919063ffffffff16565b8073ffffffffffffffffffffffffffffffffffffffff167f28b26e7a3d20aedbc5f8f2ebf7da671c0491723a2b78f47a097b0e46dee0714260405160405180910390a250565b60008073ffffffffffffffffffffffffffffffffffffffff168273ffffffffffffffffffffffffffffffffffffffff161415612da557600080fd5b8260000160008373ffffffffffffffffffffffffffffffffffffffff1673ffffffffffffffffffffffffffffffffffffffff16815260200190815260200160002060009054906101000a900460ff16905092915050565b612e1081600061311e90919063ffffffff16565b8073ffffffffffffffffffffffffffffffffffffffff167fe3f5ed5f263f1f01764a96edfc7d025f511ec5f7d180e8816908b78bcf74f09860405160405180910390a250565b612e6a81600161311e90919063ffffffff16565b8073ffffffffffffffffffffffffffffffffffffffff167f126174f6cf49c81cdb4a9214c6b8f037bef55b4ec31e4fc776cea2a1c8a88d5960405160405180910390a250565b612ec481600161307290919063ffffffff16565b8073ffffffffffffffffffffffffffffffffffffffff167fddbf200aa634dc3fb81cfd68583dd1040d1c751d335e1d86b631bde3e977fea860405160405180910390a250565b612f1e81600261307290919063ffffffff16565b8073ffffffffffffffffffffffffffffffffffffffff167f2e0ded4123377a3c2bc9a26f1717655a129e2f20752924d42e730ec89c83dbd060405160405180910390a250565b612f7881600261311e90919063ffffffff16565b8073ffffffffffffffffffffffffffffffffffffffff167fa5e0f060af304ab17dd418c7927e3da3ae7868189bf387aee09ab179ccc572f260405160405180910390a250565b612fd281600361307290919063ffffffff16565b8073ffffffffffffffffffffffffffffffffffffffff167f71ae26cad02663e3d92efd6ec56031a80d74a20c0ab4183faa8bf262261c9baa60405160405180910390a250565b61302c81600361311e90919063ffffffff16565b8073ffffffffffffffffffffffffffffffffffffffff167fdb7176e79cffef81cb01767dd0447a0b24bb72ca9778d4b245581086b2a7e6db60405160405180910390a250565b600073ffffffffffffffffffffffffffffffffffffffff168173ffffffffffffffffffffffffffffffffffffffff1614156130ac57600080fd5b6130b68282612d6a565b156130c057600080fd5b60018260000160008373ffffffffffffffffffffffffffffffffffffffff1673ffffffffffffffffffffffffffffffffffffffff16815260200190815260200160002060006101000a81548160ff0219169083151502179055505050565b600073ffffffffffffffffffffffffffffffffffffffff168173ffffffffffffffffffffffffffffffffffffffff16141561315857600080fd5b6131628282612d6a565b61316b57600080fd5b60008260000160008373ffffffffffffffffffffffffffffffffffffffff1673ffffffffffffffffffffffffffffffffffffffff16815260200190815260200160002060006101000a81548160ff0219169083151502179055505050565b604051806101e001604052806000815260200160008152602001600073ffffffffffffffffffffffffffffffffffffffff168152602001600073ffffffffffffffffffffffffffffffffffffffff168152602001606081526020016060815260200160608152602001606081526020016000815260200160608152602001600081526020016000600781111561325b57fe5b8152602001600073ffffffffffffffffffffffffffffffffffffffff168152602001600073ffffffffffffffffffffffffffffffffffffffff168152602001600073ffffffffffffffffffffffffffffffffffffffff1681525090565b828054600181600116156101000203166002900490600052602060002090601f016020900481019282601f106132f957805160ff1916838001178555613327565b82800160010185558215613327579182015b8281111561332657825182559160200191906001019061330b565b5b5090506133349190613338565b5090565b61335a91905b8082111561335657600081600090555060010161333e565b5090565b9056fea265627a7a723158200d15524424c87826be09f340c73b68fb9e51ad3908c648a7746c3cee8283784f64736f6c63430005100032",
  "source": "pragma solidity >=0.5.0;\n\nimport \"../coffeeaccesscontrol/ConsumerRole.sol\";\nimport \"../coffeeaccesscontrol/DistributorRole.sol\";\nimport \"../coffeeaccesscontrol/FarmerRole.sol\";\nimport \"../coffeeaccesscontrol/RetailerRole.sol\";\n\n// Define a contract 'Supplychain'\ncontract SupplyChain is ConsumerRole, DistributorRole, FarmerRole, RetailerRole {\n\n  // Define 'owner'\n  address payable owner;\n\n  // Define a variable called 'upc' for Universal Product Code (UPC)\n  uint  upc;\n\n  // Define a variable called 'sku' for Stock Keeping Unit (SKU)\n  uint  sku;\n\n  // Define a public mapping 'items' that maps the UPC to an Item.\n  mapping (uint => Item) items;\n\n  // Define a public mapping 'itemsHistory' that maps the UPC to an array of TxHash,\n  // that track its journey through the supply chain -- to be sent from DApp.\n  mapping (uint => string[]) itemsHistory;\n\n  // Define enum 'State' with the following values:\n  enum State\n  {\n    Harvested,  // 0\n    Processed,  // 1\n    Packed,     // 2\n    ForSale,    // 3\n    Sold,       // 4\n    Shipped,    // 5\n    Received,   // 6\n    Purchased   // 7\n    }\n\n  State constant defaultState = State.Harvested;\n\n  // Define a struct 'Item' with the following fields:\n  struct Item {\n    uint    sku;  // Stock Keeping Unit (SKU)\n    uint    upc; // Universal Product Code (UPC), generated by the Farmer, goes on the package, can be verified by the Consumer\n    address payable ownerID;  // Metamask-Ethereum address of the current owner as the product moves through 8 stages\n    address payable originFarmerID; // Metamask-Ethereum address of the Farmer\n    string  originFarmName; // Farmer Name\n    string  originFarmInformation;  // Farmer Information\n    string  originFarmLatitude; // Farm Latitude\n    string  originFarmLongitude;  // Farm Longitude\n    uint    productID;  // Product ID potentially a combination of upc + sku\n    string  productNotes; // Product Notes\n    uint    productPrice; // Product Price\n    State   itemState;  // Product State as represented in the enum above\n    address payable distributorID;  // Metamask-Ethereum address of the Distributor\n    address payable retailerID; // Metamask-Ethereum address of the Retailer\n    address payable consumerID; // Metamask-Ethereum address of the Consumer\n  }\n\n  // Define 8 events with the same 8 state values and accept 'upc' as input argument\n  event Harvested(uint upc);\n  event Processed(uint upc);\n  event Packed(uint upc);\n  event ForSale(uint upc);\n  event Sold(uint upc);\n  event Shipped(uint upc);\n  event Received(uint upc);\n  event Purchased(uint upc);\n\n  // Define a modifer that checks to see if msg.sender == owner of the contract\n  modifier onlyOwner() {\n    require(msg.sender == owner, 'Owner could not be verified');\n    _;\n  }\n\n  // Define a modifer that verifies the Caller\n  modifier verifyCaller (address _address) {\n    require(msg.sender == _address, 'Caller could not be verified');\n    _;\n  }\n\n  // Define a modifier that checks if the paid amount is sufficient to cover the price\n  modifier paidEnough(uint _price) {\n    require(msg.value >= _price, 'Not paid enpugh');\n    _;\n  }\n\n  // Define a modifier that checks the price and refunds the remaining balance\n  modifier checkValue(uint _upc) {\n    _;\n    uint _price = items[_upc].productPrice;\n    uint amountToReturn = msg.value - _price;\n    items[_upc].consumerID.transfer(amountToReturn);\n  }\n\n  // Define a modifier that checks if an item.state of a upc is Harvested\n  modifier harvested(uint _upc) {\n    require(items[_upc].itemState == State.Harvested, 'Not harvested');\n    _;\n  }\n\n  // Define a modifier that checks if an item.state of a upc is Processed\n  modifier processed(uint _upc) {\n    require(items[_upc].itemState == State.Processed, 'State is not processed');\n    _;\n  }\n\n  // Define a modifier that checks if an item.state of a upc is Packed\n  modifier packed(uint _upc) {\n    require(items[_upc].itemState == State.Packed, 'Item not packed');\n    _;\n  }\n\n  // Define a modifier that checks if an item.state of a upc is ForSale\n  modifier forSale(uint _upc) {\n    require(items[_upc].itemState == State.ForSale, 'Could not put item up for sale');\n    _;\n  }\n\n  // Define a modifier that checks if an item.state of a upc is Sold\n  modifier sold(uint _upc) {\n    require(items[_upc].itemState == State.Sold, 'Could not sell item');\n    _;\n  }\n\n  // Define a modifier that checks if an item.state of a upc is Shipped\n  modifier shipped(uint _upc) {\n    require(items[_upc].itemState == State.Shipped, 'Item not shipped');\n    _;\n  }\n\n  // Define a modifier that checks if an item.state of a upc is Received\n  modifier received(uint _upc) {\n    require(items[_upc].itemState == State.Received, 'Item not received');\n    _;\n  }\n\n  // Define a modifier that checks if an item.state of a upc is Purchased\n  modifier purchased(uint _upc) {\n    require(items[_upc].itemState == State.Purchased, 'Item not purchased');\n    _;\n  }\n\n  // In the constructor set 'owner' to the address that instantiated the contract\n  // and set 'sku' to 1\n  // and set 'upc' to 1\n  constructor() public payable {\n    owner = msg.sender;\n    sku = 1;\n    upc = 1;\n  }\n\n  // Define a function 'kill' if required\n  function kill() public {\n    if (msg.sender == owner) {\n      selfdestruct(owner);\n    }\n  }\n\n  // Define a function 'harvestItem' that allows a farmer to mark an item 'Harvested'\n  function harvestItem(uint _upc,\n  address payable _originFarmerID,\n  string memory _originFarmName,\n  string memory _originFarmInformation,\n  string  memory _originFarmLatitude,\n  string  memory _originFarmLongitude,\n  string  memory _productNotes) public\n  {\n    // Add the new item as part of Harvest\n    items[_upc].sku = sku;\n    items[_upc].upc = _upc;\n    items[_upc].productID = sku + _upc;\n    items[_upc].ownerID = msg.sender;\n    items[_upc].originFarmerID = _originFarmerID;\n    items[_upc].originFarmName = _originFarmName;\n    items[_upc].originFarmInformation = _originFarmInformation;\n    items[_upc].originFarmLatitude = _originFarmLatitude;\n    items[_upc].originFarmLongitude = _originFarmLongitude;\n    items[_upc].productNotes = _productNotes;\n    items[_upc].itemState = State.Harvested;\n    // Increment sku\n    sku = sku + 1;\n    // Emit the appropriate event\n    emit Harvested(_upc);\n  }\n\n  // Define a function 'processtItem' that allows a farmer to mark an item 'Processed'\n  function processItem(uint _upc) public\n  // Call modifier to check if upc has passed previous supply chain stage\n  harvested(_upc)\n  // Call modifier to verify caller of this function\n  verifyCaller(items[_upc].originFarmerID)\n  {\n    // Update the appropriate fields\n    items[_upc].itemState = State.Processed;\n    // Emit the appropriate event\n    emit Processed(_upc);\n  }\n\n  // Define a function 'packItem' that allows a farmer to mark an item 'Packed'\n  // Call modifier to check if upc has passed previous supply chain stage\n  // Call modifier to verify caller of this function\n  function packItem(uint _upc) public\n  processed(_upc)\n  verifyCaller(items[_upc].originFarmerID)\n  {\n    // Update the appropriate fields\n    items[_upc].itemState = State.Packed;\n    // Emit the appropriate event\n    emit Packed(_upc);\n  }\n\n  // Define a function 'sellItem' that allows a farmer to mark an item 'ForSale'\n  // Call modifier to check if upc has passed previous supply chain stage\n  // Call modifier to verify caller of this function\n  function sellItem(uint _upc, uint _price) public\n  packed(_upc)\n  verifyCaller(items[_upc].originFarmerID)  {\n    // Update the appropriate fields\n    items[_upc].itemState = State.ForSale;\n    items[_upc].productPrice = _price;\n    // Emit the appropriate event\n    emit ForSale(_upc);\n  }\n\n  // Define a function 'buyItem' that allows the disributor to mark an item 'Sold'\n  // Call modifier to check if upc has passed previous supply chain stage\n  // Call modifer to check if buyer has paid enough\n  // Call modifer to send any excess ether back to buyer\n  // Use the above defined modifiers to check if the item is available for sale, if the buyer has paid enough,\n  // and any excess ether sent is refunded back to the buyer\n  function buyItem(uint _upc) public payable\n  forSale(_upc)\n  paidEnough(items[_upc].productPrice)\n  checkValue(_upc) {\n    // Update the appropriate fields - ownerID, distributorID, itemState\n    items[_upc].ownerID = msg.sender;\n    items[_upc].distributorID = msg.sender;\n    items[_upc].itemState = State.Sold;\n    // Transfer money to farmer\n    items[_upc].originFarmerID.transfer(items[_upc].productPrice);\n    // emit the appropriate event\n    emit Sold(_upc);\n  }\n\n // Define a function 'shipItem' that allows the distributor to mark an item 'Shipped'\n  // Call modifier to check if upc has passed previous supply chain stage\n  // Call modifier to verify caller of this function\n  // Use the above modifers to check if the item is sold\n  function shipItem(uint _upc) public\n  sold(_upc)\n  verifyCaller(items[_upc].ownerID) {\n    // Update the appropriate fields\n    items[_upc].itemState = State.Shipped;\n    // Emit the appropriate event\n    emit Shipped(_upc);\n  }\n\n  // Define a function 'receiveItem' that allows the retailer to mark an item 'Received'\n  // Call modifier to check if upc has passed previous supply chain stage\n  // Access Control List enforced by calling Smart Contract / DApp\n  // Use the above modifiers to check if the item is shipped\n  function receiveItem(uint _upc) public\n  shipped(_upc) {\n    // Update the appropriate fields - ownerID, retailerID, itemState\n    items[_upc].ownerID = msg.sender;\n    items[_upc].retailerID = msg.sender;\n    items[_upc].itemState = State.Received;\n    // Emit the appropriate event\n    emit Received(_upc);\n  }\n\n  // Define a function 'purchaseItem' that allows the consumer to mark an item 'Purchased'\n  // Call modifier to check if upc has passed previous supply chain stage\n  // Access Control List enforced by calling Smart Contract / DApp\n  // Use the above modifiers to check if the item is received\n  function purchaseItem(uint _upc) public\n  received(_upc) {\n    // Update the appropriate fields - ownerID, consumerID, itemState\n    items[_upc].ownerID = msg.sender;\n    items[_upc].consumerID = msg.sender;\n    items[_upc].itemState = State.Purchased;\n    // Emit the appropriate event\n    emit Purchased(_upc);\n  }\n\n  // Define a function 'fetchItemBufferOne' that fetches the data\n  function fetchItemBufferOne(uint _upc) public view returns\n  (\n  uint    itemSKU,\n  uint    itemUPC,\n  address ownerID,\n  address originFarmerID,\n  string  memory originFarmName,\n  string  memory originFarmInformation,\n  string  memory originFarmLatitude,\n  string  memory originFarmLongitude\n  )\n  {\n  // Assign values to the 8 parameters\n  Item memory item = items[_upc];\n\n  return(\n    itemSKU = item.sku,\n    itemUPC = item.upc,\n    ownerID = item.ownerID,\n    originFarmerID = item.originFarmerID,\n    originFarmName = item.originFarmName,\n    originFarmInformation = item.originFarmInformation,\n    originFarmLatitude = item.originFarmLatitude,\n    originFarmLongitude = item.originFarmLongitude\n  );\n  }\n\n  // Define a function 'fetchItemBufferTwo' that fetches the data\n  function fetchItemBufferTwo(uint _upc) public view returns\n  (\n  uint    itemSKU,\n  uint    itemUPC,\n  uint    productID,\n  string memory productNotes,\n  uint    productPrice,\n  uint    itemState,\n  address distributorID,\n  address retailerID,\n  address consumerID\n  )\n  {\n    // Assign values to the 9 parameters\n    Item memory item = items[_upc];\n    return(\n      itemSKU = item.sku,\n      itemUPC = item.upc,\n      productID = item.productID,\n      productNotes = item.productNotes,\n      productPrice = item.productPrice,\n      itemState = uint(item.itemState),\n      distributorID = item.distributorID,\n      retailerID = item.retailerID,\n      consumerID = item.consumerID\n    );\n  }\n}\n",
  "sourcePath": "/Users/indraneelray/Documents/Blockchain-Nanodegree/project3/project-6/contracts/coffeebase/SupplyChain.sol",
  "compiler": {
    "name": "solc",
    "version": "0.5.16+commit.9c3226ce.Emscripten.clang"
  },
  "schemaVersion": "3.1.0",
  "updatedAt": "2020-05-04T00:48:57.181Z",
  "networkType": "ethereum",
  "devdoc": {
    "methods": {}
  },
  "userdoc": {
    "methods": {}
  }
}